:100000000AC018951895189518951895189518956B
:100010001895189518958FED8DBFC8EBE0EA4E2E18
:10002000DD275D2EEEE7F0E0A0E6B0E088278D93B7
:100030003197E9F766248FEF87BB8C9A8D9A8E9A59
:10004000E1D088EE93E0A4D1A7E6BA93AA93E1D0D9
:100050002296A7E68C9182508C930091670000381D
:1000600008F037C0E7E6F0E0D080EE24FF24002758
:100070003CD2A9E6DDD100916800003010F009F013
:1000800001C00BC0ECE1F7E0EAD2E9E6F0E0C6D14E
:1000900098D2EDE0F0E0A9E69DD1E0E2F7E0DFD212
:1000A000E9E6F0E0BBD149D2EDE0F0E0A9E692D17B
:1000B000E4E2F7E0D4D2E9E6F0E0B0D182D2EDE0BC
:1000C000F0E0A9E687D1E9E6F0E0B7D1A7E6DC9257
:1000D00041C0E7E6F0E0D080EE24FF24002705D2FF
:1000E000A9E6A6D1E8E2F7E0BAD2E9E6F0E096D1D7
:1000F00059D2EDE0F0E0A9E66DD100916800003042
:1001000010F009F001C00BC0ECE1F7E0A8D2E9E67D
:10011000F0E084D156D2EDE0F0E0A9E65BD1E0E278
:10012000F7E09DD2E9E6F0E079D107D2EDE0F0E02A
:10013000A9E650D1E4E2F7E092D2E9E6F0E06ED130
:1001400040D2EDE0F0E0A9E645D1E9E6F0E075D176
:10015000A7E6DC9281E090E0A5E68D939C93A5E66E
:100160000D911C910A3F50E0150710F009F031C0C5
:1001700000916700003081E008F480E08F930091E7
:100180006700023D81E010F009F080E09F91892333
:10019000882309F406C0A7E6BA93AA934CD0229606
:1001A00014C000916700023D81E008F480E08F9365
:1001B000009167000F3F81E010F009F080E09F910F
:1001C0008923882309F401C0BAD0A5E6D1D008F468
:1001D000C6CF00916700003081E009F080E08F9386
:1001E00000916700043681E008F080E09F91892B40
:1001F000882309F404C0A0E68C918F5F8C9324CFF0
:10020000F894FFCF3AD210E94FD21EEE4DD243D22E
:10021000089533D210E948D21AEA46D23CD22DD200
:1002200011E942D260D2A881B9811C935AD2A8E6C2
:100230001C9331D20895A881B9810C91043608F03D
:1002400034C0A881B9810C914AE0CAD0A2E68C934F
:10025000E4E6F3E0A2E68C919927A0E6B8D070E43A
:1002600072BBA0E68C9188BB85E090E091D0A8811C
:10027000B9810C914AE0B4D0A3E60C93E4E6F3E034
:10028000A3E68C919927A0E6A2D070E272BBA0E60B
:100290008C9188BB85E090E07BD070E172BB70E010
:1002A00078BB85E090E074D047C0A881B9810C91FB
:1002B0004AE096D0A2E68C93E4E6F3E0A2E68C91C5
:1002C0009927A0E684D070E472BBA0E68C9188BB2D
:1002D00085E090E05DD0A881B9810C914AE080D0A2
:1002E000A3E60C93A3E60C914AE07AD08C93E4E663
:1002F000F3E0A3E68C919927A0E669D070E272BB87
:10030000A0E68C9188BB85E090E042D0A881B981BD
:100310000C9144E665D0A4E60C93E4E6F3E0A4E691
:100320008C919927A0E653D070E172BBA0E68C9126
:1003300088BB85E090E02CD070E072BB08958AE025
:1003400080936100E4E6F3E0A1E68C919927A0E6B2
:100350003ED070E772BBA0E68C9188BB8FE090E046
:1003600017D008953F065B4F666D7D077F6F400095
:10037000ED91FC91EF5FFF4FFC93EE930895319761
:10038000F1F70895689462F80895E89462F8089582
:10039000EF93FF93EE27E82BE92B31F0E4ECF9E043
:1003A0003197F1F70197D1F7FF91EF910895C89533
:1003B00031960020089591E005C092E003C094E0DA
:1003C00001C098E0F4DF0D929A95E1F70895E80FE7
:1003D000F91FF1CF94E081918D939A95E1F70895FB
:1003E000FF93881BF9E0001FFA9511F4FF9108951F
:1003F000881F841B18F4840F8894F5CF0894F3CFDA
:10040000B7FE089590E8B91611F4D0FE08959FEF55
:10041000D91AE90AF90A09F403950895D190E190EF
:10042000F190019108952191319141915191089557
:10043000DD92ED92FD920C930895F0DF992711273C
:100440008F2D880F80E8F82A802F881F08F41FEF6F
:1004500041F08F57082F07FD04C0003240F08FEFA6
:1004600001C08827982FD82EE82EF82E09C08FE1DA
:10047000801B082FF694E794D79497950A95D1F7A7
:10048000112351F09095D094E094F09481E0980F6E
:100490008827D81EE81EF81E0F2DFE2CED2CD92E15
:1004A0000895D094E094F09491E0D90E9927E91E34
:1004B000F91E10950895652F90E8440F551F592790
:1004C000990F47956078102F90E8FF0C001F0927BF
:1004D000990FF794107800380895FF0C90E8902752
:1004E000110F9795F794092F08951127BD2CDE2C35
:1004F000EF2CF02E0EE1FF2039F4FE2CED2CDB2C3E
:10050000BB240850C2F710C032F00A95BB0CDD1CAA
:10051000EE1CFF1CF9CF74DFE0CF9FE7092FF92A0B
:100520009FEFD92EE92E0895DD24EE24FF24002725
:10053000112708950FE79FEFF2CFBDDFD1F05038BC
:10054000C1F016270058952F90580894091F12F4EF
:1005500018F40EC008F00DC00DD0FF202AF0BB0C1F
:10056000DD1CEE1CFF1C02C0039513F049DFB5CF64
:10057000D4CFDACF9F929924AA24BB24992788E16B
:10058000990CAA1CBB1CDD1CEE1CFF1C30F4920E47
:10059000A31EB41ED91EE91EF91E8A9589F79F90E5
:1005A000089541DF88DF503829F090E869270CC0B2
:1005B0000AF045D092CF5FE322273327442701C0BA
:1005C00032DF79DF5038B1F3003899F3902F951B63
:1005D0008BF312F434D0FACF983118F02227332756
:1005E0004427983028F0232F342F44279850F9CFF0
:1005F000992329F04695379527959A95D9F7912F04
:10060000962742F014D0B0F6F794E794D7940F5F92
:100610008BF683CF10D051F008F443DFFF2052F265
:10062000DD0CEE1CFF1C0150CBF777CF7DCFD20E37
:10063000E31EF41E0895D21AE30AF40A0895DF9225
:10064000EF92FF920F931F93D22EE32EF42E052FDD
:10065000162F6F915F914F913F912F910895A7DED3
:10066000202DA5DE302DA3DE402DA1DE502D0895D6
:1006700089988898919890980895889A899803D035
:10068000889801D0899AEF93FF93E9E0F0E077DE54
:10069000FF91EF910895889A899AF5DF8898809B59
:1006A000FECFF1DF8998EFCF0894111F01C0110F21
:1006B00069F0889A18F40000899802C0899A00C0ED
:1006C000E2DF8898809BFECFDEDFF1CF889A8998A1
:1006D000DADF8898809BFECFE8948199689462F86D
:1006E000D2CF089401C08894331F11E0889A89986A
:1006F000CADF8898809BFECFC6DF889481990894D2
:10070000111FA0F7889A379510F4899801C0899A2B
:10071000BADF8898809BFECFB6DF08950000003FC7
:0C0720006666E63F0000004200008043D7
:00000001FF
