:100000000AC018951895189518951895189518956B
:100010001895189518958FED8DBFC8EBE0EA4E2E18
:10002000DD275D2EEEE7F0E0A0E6B0E088278D93B7
:100030003197E9F766248FEF87BB8C9A8D9A8E9A59
:100040008EE1809368007CD088EE93E0A1D1A5E694
:10005000BA93AA937CD02296A5E68C9183508C9378
:1000600081E090E0A3E68D939C93A3E60D911C9113
:100070000A3F50E0150710F009F05FC000916500DD
:10008000003081E008F480E08F9300916500033632
:1000900081E010F009F080E09F918923882309F422
:1000A00006C0A5E6BA93AA9364D0229642C00091F6
:1000B0006500043681E008F480E08F9300916500CC
:1000C0000F3781E010F009F080E09F9189238823A9
:1000D00009F402C00DD12DC000916500003881E007
:1000E00008F480E08F9300916500053F81E010F0F7
:1000F00009F080E09F918923882309F402C0F8D099
:1001000018C000916500063F81E008F480E08F93FD
:10011000009165000F3F81E010F009F080E09F91B1
:100120008923882309F405C0A5E6BA93AA9390D041
:100130002296A3E61DD108F498CF89CFF894FFCF7B
:100140005ED110E972D11EEE70D166D1089557D1FB
:1001500010E96BD11AEA69D15FD151D111E965D1AA
:1001600083D1A881B9811C937DD1A6E61C9354D17B
:10017000089500916600003009F004C080E080938B
:10018000610003C085E080936100E2E6F3E0A1E650
:100190008C919927A0E61BD170E472BBA0E68C91EC
:1001A00088BB85E090E0F4D0A881B9810C914AE049
:1001B00011D1A1E68C93E2E6F3E0A1E68C919927B8
:1001C000A0E605D170E272BB0091600040E8040F28
:1001D00008BB85E090E0DCD0A881B9810C914AE0B1
:1001E000F9D0A1E60C93E2E6F3E0A1E68C91992721
:1001F000A0E6EDD070E172BB00916100013008F023
:1002000003C070E078BB03C0A0E68C9188BB85E09A
:1002100090E0BED070E072BB409168000091650034
:10022000041710F009F001C012C081E08093620051
:10023000009162000A3010F009F009C08FE090E0F0
:10024000A7D0A2E68C918F5F8C9308F4F1CF08952C
:1002500000E0A881B9814C91041BA7E60C93A7E6A6
:100260008C9181508C9300916600003009F004C09D
:1002700085E08093610003C080E080936100E2E646
:10028000F3E0A1E68C919927A0E6A1D070E472BBBF
:10029000A0E68C9188BB85E090E07AD00091670061
:1002A0004AE098D0A1E68C93E2E6F3E0A1E68C91D7
:1002B0009927A0E68CD070E272BB0091600040E804
:1002C000040F08BB85E090E063D08AE08093610072
:1002D000E2E6F3E0A1E68C919927A0E678D070E100
:1002E00072BBA0E68C9188BB85E090E051D0089568
:1002F0008AE080936100E2E6F3E0A1E68C91992721
:10030000A0E665D070E472BBA0E68C9188BB85E066
:1003100090E03ED08AE080936100E2E6F3E0A1E65F
:100320008C919927A0E653D070E272BBA0E68C9125
:1003300088BB85E090E02CD08AE080936100E2E603
:10034000F3E0A1E68C919927A0E641D070E172BB61
:10035000A0E68C9188BB85E090E01AD00895F894CF
:10036000FFCF3F065B4F666D7D077F6F408038464D
:10037000ED91FC91EF5FFF4FFC93EE930895319761
:10038000F1F70895689462F80895E89462F8089582
:10039000EF93FF93EE27E82BE92B31F0EAEFF0E043
:1003A0003197F1F70197D1F7FF91EF910895C89533
:1003B00031960020089591E005C092E003C094E0DA
:1003C00001C098E0F4DF0D929A95E1F70895E80FE7
:1003D000F91FF1CFFF93881BF9E0001FFA9511F484
:1003E000FF910895881F841B18F4840F8894F5CF1B
:1003F0000894F3CF89988898919890980895889A4E
:10040000899803D0889801D0899A000000000000E4
:100410000000000000000895889A899AF6DF889805
:10042000809BFECFF2DF8998F0CF0894111F01C0A6
:10043000110F69F0889A18F40000899802C0899A0F
:1004400000C0E3DF8898809BFECFDFDFF1CF889A82
:100450008998DBDF8898809BFECFE8948199689427
:1004600062F8D3CF089401C08894331F11E0889AB2
:100470008998CBDF8898809BFECFC7DF88948199CD
:100480000894111FA0F7889A379510F4899801C035
:0E049000899ABBDF8898809BFECFB7DF089566
:00000001FF
